:020000040800F2
:10000000200F002091780008197800081B7800085C
:100010001D7800081F780008217800080000000003
:10002000000000000000000000000000237800082D
:1000300025780008000000002778000829780008CB
:10004000D1780008D5780008D9780008DD78000854
:10005000E1780008E5780008E9780008ED78000804
:10006000F1780008F5780008F9780008FD780008B4
:100070000179000805790008097900080D79000860
:100080001179000815790008197900081D79000810
:100090002179000825790008297900082D790008C0
:1000A0003179000835790008397900083D79000870
:1000B0004179000845790008497900084D79000820
:1000C0005179000855790008597900085D790008D0
:1000D0006179000865790008697900086D79000880
:1000E0007179000875790008797900087D79000830
:1000F00081790008857900088979000800000000EE
:100100008D7900089179000895790008997900089F
:100110002D7800089D790008A1790008A5790008CC
:10012000A9790008AD790008B1790008B57900080F
:10013000B9790008BD790008C1790008C5790008BF
:10014000C9790008CD790008D1790008D57900086F
:10015000D9790008DD790008E1790008E57900081F
:10016000E9790008ED790008F1790008F5790008CF
:10017000F9790008FD79000800000000017A000804
:10018000057A0008097A00080D7A0008117A00083B
:10019000157A00081D7A0008000000000000000029
:1001A0000000000000000000197A0008217A000811
:1001B000257A0008297A00082D7A0008417800780D
:1001C00007E0C178827842EA01224178007841EA6A
:1001D000022140EA012070470170090A417070470E
:1001E0000170090A4170090A8170090AC1707047DB
:1001F0002AB111F8013B00F8013B521EF9D17047BA
:10020000521E00F8011BFBD17047F0B502460023D7
:100210000024DFF8285A05EB0416306880B117680F
:10022000B84202BF70689768B84202BFB0685669AA
:10023000B04206D1022C0AD193B9022905D10FE0B0
:100240000123641C022CE6D3F4E71220F0BD29B987
:1002500005EB04108289B2F5807F01D11020F0BD3A
:100260000020F0BDF0B5024694681568DFF8CC694F
:10027000002318013758AF4202BF371D3F58A7422D
:1002800001BF06F1080738585769B84202D05B1C15
:10029000012BEED9022B11D13068002300281EBF9C
:1002A0000123306900280ED1180137183D607C60A9
:1002B00006F10804526922500020B88106EB0312AF
:1002C000908929B108B10020F0BD4FF4807000E0A2
:1002D000401C9081581CF0BD10B5401E022814D25D
:1002E0000001DFF858190A189389B3F5807F01D00F
:1002F0001C0002D10023938103E05B1E93819BB21B
:100300000BB900220A50002010BD022010BD30B5EC
:100310000021DFF8282900250B01D458844208BFAA
:10032000D550491C0129F7D930BDF8B50546002440
:10033000E878A0B1EE6A00F014F808B101240EE0EC
:10034000E870296AA869711A814208D2AF7804E07E
:10035000A869861900F005F87F1E012FF8D82046FD
:10036000F2BD68780123324605F1300101F0E2BAAE
:1003700070B504460D46E06A002685420DD0204641
:10038000FFF7D3FF060008D16078012301F098F849
:1003900010B14FF0FF350126E562304670BD38B52B
:1003A0000446FFF7C2FF050037D12078032804BFB9
:1003B000207901282AD14FF40072002104F1300085
:1003C000FFF71EFF4AF6552104F22E20FFF704FF27
:1003D000DFF8441B04F13000FFF702FFDFF83C1B9D
:1003E00004F50570FFF7FCFE216904F50670FFF7C0
:1003F000F7FEE16804F50770FFF7F2FEE269607846
:10040000521CE26201F03EF8002020710022607868
:10041000002101F09DFA00B10125284632BD426954
:10042000891E921E914201D3002070474289806A42
:1004300002FB0101084670472DE9F0410C460568B2
:10044000022C47D36869844244D2297801294FF0AD
:10045000FF3604D03ED303292CD01CD33AE0296ABE
:1004600004EB540700F0A4FA002834D100F0AAF8F5
:1004700010F80180296A00F09BFA60BB05F130009A
:10048000C7F30807C15D48EA0126E00754BFC6F379
:100490000B0636091FE0296A01EB142100F08AFAE5
:1004A000C8B905F13000240600EBD450FFF786FEF2
:1004B000064610E0296A01EBD41100F07BFA50B92E
:1004C00005F13000640600EBD450FFF77AFE20F00F
:1004D000704600E001263046BDE8F0812DE9F0418C
:1004E0000E46022E054614464FF0020867D368698F
:1004F000864264D22978012904D060D3032943D0ED
:1005000031D35CE0296A06EB560700F051FA5FEA46
:10051000000854D100F056F80844F20743BF0178B0
:1005200001F00F0141EA0411214601700120E87039
:100530002846296A01EB5721FFF71AFF5FEA0008F6
:100540003DD105F13000C7F30807C019F10748BFD6
:10055000240906D40178240A01F0F00104F00F0404
:100560000C43047029E0296A01EB162100F022FAFD
:100570005FEA000823D105F130003606A1B200EB96
:10058000D650FFF729FE18E0296A01EBD61100F0DA
:1005900011FA5FEA000812D105F13000760600EB8F
:1005A000D6563046FFF70DFE24F0704400F0704040
:1005B00040EA04013046FFF713FE0120E870404690
:1005C000BDE8F08105F13000C7F308017F1C7047DA
:1005D000F8B505460F462E68012F114629D97069D6
:1005E000874226D229B14FF0FF3200F078F801009F
:1005F0001ED139462846FFF71FFF040017D0012CF3
:1006000017D014F1010F16D0002200F067F8010096
:100610000ED170693169821E914205D2491C316147
:10062000317941F00101317127468742E1D3002041
:10063000F2BD0220F2BD0120F2BD2DE9F04180465D
:100640000C00D8F8006006D1F56815B170698542D4
:100650000ED301250CE0FFF7EFFE012898BF012023
:100660003AD910F1010F37D07169884234D3254649
:100670002F4670697F1C874202D30227012D0BD9B8
:1006800039464046FFF7D8FE40B1012818BF10F1A7
:10069000010F21D0AF42ECD100201DE04FF0FF321E
:1006A00000F01CF890B924B13A46214600F017F842
:1006B00060B9F76071693069891E814224BF401EAC
:1006C0003061307940F00100307104E001280CBF46
:1006D0004FF0FF3701273846BDE8F08139463046F4
:1006E000FCE6C26A00684389490A121DB1FBF3F0B7
:1006F00003E0884206D3401A083211680029F8D175
:10070000002070475168081870472DE9F0410546F0
:100710000E462F68B6F5001F2DD216F01F0F2AD1F6
:10072000AC686E6154B93878032801DB7C6A2CB957
:100730003989700988421ED2786A18E0B7F80A80B1
:1007400006E0022C17D37869844214D2A6EB48261F
:10075000B6EB482F214608D32846FFF76DFE044626
:1007600014F1010FEDD1012011E000F083F8E861F0
:10077000AC61E86908B9022009E000EB5620E861A5
:10078000C6F30806B81900F1300129620020BDE85F
:10079000F0812DE9F04106460C4675693768F0692D
:1007A000203510B3B5F5001F1FD2E90557D1401C05
:1007B000B169F06121B93989680988424FD312E0E3
:1007C0007889401E10EA552F49D13046FFF734FE94
:1007D0008046B8F1010F16D918F1010F35D07869AC
:1007E000804537D31CB90020F06104203FE0B16997
:1007F0003046FFF722FF5FEA000808BF072036D027
:10080000B8F1010F01D1022031E018F1010F1CD025
:100810003846FFF78AFDC0B94FF40072002107F196
:100820003000FFF7EDFC00F024F8002402E0F86A45
:10083000641C401CF8627889844208D20121F97056
:100840003846FFF772FD0028F1D001200FE0F86A6A
:10085000041BFC62C6F8188000F00BF8F0617561AB
:1008600007F13000C5F30805411931620020BDE8E9
:10087000F08141463846D2E570B504460D4605F193
:100880001A00FFF79BFC21780329064605D105F1E4
:100890001400FFF793FC46EA0046304670BD70B581
:1008A00004460D461646B1B205F11A00FFF794FC56
:1008B0002178032905D1310C05F11400BDE8704001
:1008C0008AE470BD70B504460D4626680422E169CD
:1008D000F1B13046FFF74CFD020019D1216A0878CA
:1008E000D8B1C97AE52801F03F011CBF2E280F2995
:1008F000A17107D021F02001082914BF0020012098
:10090000A8420CD000212046FFF743FF0200DED0B2
:10091000100004D00020E06101E00422FAE7104654
:1009200070BDF8B5054600212C68FFF7EEFE070004
:1009300016D10026E9692046FFF71AFD07000FD1FE
:10094000286A0078E5281CBF0028002602D1761C02
:10095000012E08D001212846FFF71BFF0700E9D030
:10096000042F08BF0727380012D1E9692046FFF796
:10097000FFFC07000CD1286A20220021FFF740FC71
:10098000286A0B2205F12401FFF732FC0120E070F8
:100990003846F2BD38B504462568E16900F00AF82A
:1009A000010004D1226AE52111700123EB7032BDF0
:1009B00001EB57212846DBE470B50C4605460021C3
:1009C0006172E86948B3002004F109062A6A525CA2
:1009D000491C202A0BD0052A08BFE522092902D18B
:1009E0002E233354401C04F109031A54401C0B29D4
:1009F000ECD304F1090200211154286AC17A217252
:100A00002A6A02F11C00FFF7DCFB2060286A16301E
:100A1000FFF7D7FBE080000CA08070BD2DE9F84304
:100A200004460F46D4F8008000E07F1C38782F2859
:100A300018BF5C28F9D00020A06004F124063978A2
:100A400020292BD28022F27200212046FFF75DFE82
:100A5000024690E03278E52A04BF05203070202D50
:100A6000CCBF00200420F072002125682046FFF74B
:100A70004CFE02006FD0F07A110077D140077AD493
:100A8000A179C80676D56169C1F3080108EB0100B8
:100A900000F130014046FFF7EFFEA0600B2220215D
:100AA0003046FFF7ADFB0021002208230FF2CC0CEB
:100AB000DFF864E60FE009F1010999F80000002869
:100AC00018BFA842F7D140BBA5F161001A2838BF72
:100AD000203D7554491CBD5C521C202D1ADD2F2D64
:100AE00018BF5C2D11D02E2D09D0994215D2802D22
:100AF000A4BF0EEB050010F8805CE146DDE70B2B90
:100B00000BD008210B23E6E7521CB85C2F2818BF36
:100B10005C28F9D0002917449CD106222BE0C87A22
:100B2000236A00F03F00A071D87A01070DD4B446C3
:100B30000B2113F801EB1CF8010B491EAEEB000072
:100B400001D00028F5D0002895D000212046FFF7DD
:100B500020FE02008FD1E169FFF72CFF02008AD14D
:100B6000216A08780028DAD1042284E7042A02D115
:100B7000400700D405221046BDE8F283222A2B2C20
:100B80003A3B3C3D3E3F5B5D7C7F000003464FF0BF
:100B9000FF301A68002A00D1704710B5144600E0F3
:100BA000641C2178212901D33A29F9D13A290CD1A1
:100BB00012F8011B30390A2908D2A24208BF0029C5
:100BC00004D1611C0020196010BD002010BD10B5BB
:100BD000044600224FF0FF33E270E362FFF7C8FBE8
:100BE00008B1042010BD04F22E20FFF7E7FA4AF600
:100BF0005521884201D0032010BD04F13000017856
:100C0000E92904D0EB2904BF8078902813D104F19E
:100C10006600FFF7D6FA20F07F40DFF80015884223
:100C200007D004F18200FFF7CCFADFF8F414884211
:100C300001D1002010BD022010BD0000AC0A002030
:100C40002DE9FF410E46002131601446FFF79EFF5B
:100C5000070048BF0B2007D4DFF8C88408F1040060
:100C600050F827500DB90C200BE1356004F0FE045C
:100C7000287848B1687800F03BFEC10704D4002C06
:100C800001D040070DD4FBE0002028706F70687819
:100C900000F037FEC10748BF032003D41CB1400752
:100CA00001D50A20EDE000212846FFF790FF00263D
:100CB00002281ED1002405EB041101F5F771087913
:100CC00018B101F10800FFF77CFA4DF82400641C0C
:100CD000042CF0D35DF8264024B121462846FFF7C6
:100CE00076FF00E00320022802DB761C042EF1D3FD
:100CF0002646042808BF0120D4D0022880F2818033
:100D000005F13B00FFF75AFAB0F5007F79D105F104
:100D10004600FFF753FA040004D105F15400FFF731
:100D200050FA044605F13D00AC61C178A970012973
:100D300018BF022965D14C4300786881010060D05A
:100D4000421E10425DD105F14100FFF737FA10F065
:100D50000F0F288155D105F14300FFF72FFA070047
:100D600004D105F15000FFF72CFA074605F13E00CB
:100D7000FFF724FA002844D02989231803EB111324
:100D80009F423ED36A89FF1AB7FBF2F2002A38D09D
:100D900003274FF6F67C624538BF022740F6F67C03
:100DA000624538BF0127921C6A61EE6180199B1968
:100DB000032F2862AB6210D105F15A00FFF7FEF94C
:100DC000002804BF288900281BD105F15C00FFF72B
:100DD000F8F90446686980000CE091B1286A24188B
:100DE0006869022F0FBF400000EB400100F00100D6
:100DF00000EB5100A9696C6200F2FF10B1EB502FBB
:100E000001D20D203DE04FF0FF302861E8608020E6
:100E1000032F28712AD105F16000FFF7CFF90128CF
:100E200024D1711CFFF7C6FD00BB287105F22E20EE
:100E3000FFF7C4F94AF65521884217D105F1300071
:100E4000FFF7BFF93449884210D105F50570FFF767
:100E5000B8F93249884209D105F50670FFF7B1F9B2
:100E6000286105F50770FFF7ACF9E8602F70B8F856
:100E70000000401CA8F80000E8802846FFF747FA69
:100E8000002004B0BDE8F08170B5044609260D4687
:100E9000002C1CBF216800290DD0087858B1A0880B
:100EA000CA88904207D1487800F022FDC00702D4DA
:100EB0002068002600E000202860304670BD73B531
:100EC00082B0154600916846FFF760FE002848BFD3
:100ED0000B201ED4934901EB8006746824B1204690
:100EE000FFF715FA00212170029810B900217160F6
:100EF00008E0029900200870029A7260029808B116
:100F0000012D01D0002004E0002202A903A8FFF770
:100F100097FE04B070BD000052526141727241618F
:100F20002DE9F24104008DB008BF092000F0F080E7
:100F300002F03F073A4669460DA8FFF781FE06001A
:100F400065D100980D99019001A8FFF767FD060093
:100F50000DD19DF83300010648BF062607D417F0CF
:100F6000FE0118BF012101A8FFF74FF9064617F04F
:100F70001C0F00F0A980300000F09C80042E46D1A8
:100F80006949086800281EBF08690028122603D195
:100F900001A8FFF7C6FC0646300047F0080735D128
:100FA000380739D500F0F0FC0546099829460E307F
:100FB000FFF716F9099829461630FFF711F9099934
:100FC0002020C872DDF8248000984146FFF754FCC9
:100FD0000546009800224146FFF761FC0998002170
:100FE0001C30FFF7FDF800990120C87085B100980A
:100FF000D0F82C8000F05AFC060007D1009841463A
:10100000FFF7B6F9064600986D1EC56030007CD12A
:10101000380748BF47F040070098C16A616217F07F
:10102000FE010998A06218BF012101A8FFF71AF973
:10103000002820613CD0099D00982946FFF71CFC40
:10104000A06005F11C00FFF7BCF8E0604FF40072EF
:101050000020E062009921600098C188A1800020F2
:1010600060750021A0612162277504F13000FFF74F
:10107000C7F8B8064BD5E568002D48D0A5610098A3
:101080004789A1687F02AF420CD22046FFF7D4F90E
:101090000146022926D311F1010F26D0ED1B3000A5
:1010A000F1D020E0E805E16131D000F0A7F908BBFC
:1010B00002262AE09DF80A0010F0110F10D17807DF
:1010C0007FF56EAF082620E030009FD19DF80A0022
:1010D000C10648BF042618D4B90799D5C00797D5CB
:1010E000072612E00226E1610FE04FF0FF300126F3
:1010F000E0610AE000EB552020620246009840784B
:10110000012300F0DEF910B10126002020603046F6
:101110000EB0BDE8F0810000907500084641540013
:1011200046415433100B0020AC0A00202DE9FC4747
:101130001546994600228A46C9F8002006466946A7
:10114000FFF7A2FE01005ED1707D01005BD1307D12
:10115000C10758BF072056D5F068B469041BAC42DC
:101160002FD92C462DE0670A05EB00084CD00098DB
:1011700040897919884238BF471B009840783B4620
:101180004246514600F0D0FB00286BD1307D01066D
:101190000CD5306AA0EB0803BB4207D24FF40072B3
:1011A00006F130010AEB4320FFF722F87F02B06915
:1011B0003818B061BA44D9F800107918C9F800108D
:1011C000E41B002C52D0B169C8053AD100F00FF9E8
:1011D00012D109B9B06809E0F06A18B13046FFF7DA
:1011E00080FA03E0F1693046FFF726F9022808D3B8
:1011F00010F1010F36D0F061F16900F0FFF8010045
:10120000B1D10220707532E0326A424517D0307D8C
:1012100001060BD500984078012306F1300100F05B
:1012200089FBF8B9307D00F07F003075012300980C
:101230004078424606F1300100F076FB90B9C6F8DE
:101240002080B169C1F30801C1F5007027468442CE
:1012500088BF074606F1300001443A465046FEF783
:10126000C7FFA4E701217175012000E00020BDE85F
:10127000F6872DE9FC471446984600228946C8F8AF
:10128000002007466946FFF7FFFD010001D1787D88
:10129000010040F0AA80387D810758BF072040F147
:1012A000A480B8692118814238D24FF0FF32141A55
:1012B00034E0660A05EB000A68D00098408971198D
:1012C000884238BF461B009840783346524649460C
:1012D00000F030FB002840F08080386AA0EB0A0064
:1012E000B0420BD209EB40214FF4007207F13000FD
:1012F000FEF77EFF387D00F07F0038757602B1443E
:10130000B869F9683018B861884238BF0846F86093
:10131000A41BD8F800003018C8F80000002C5FD0DB
:10132000B969C80544D100F062F818D111B9B8689C
:1013300050B906E0F86A18B13846FFF7D2F903E071
:10134000F9693846FFF779F9002849D001281BD000
:1013500010F1010F41D0B968F86101B9B860387D6A
:1013600001060CD500983A6A4078012307F1300154
:1013700000F0E0FA88BB387D00F07F003875F9692D
:1013800000F03CF8002894D1022027E0386A50454C
:101390000CD0B969F868814208D2009840780123DE
:1013A000524607F1300100F0BFFAB0B9C7F820A0EB
:1013B000BB69C3F30803C3F500702646844288BFA7
:1013C000064607F13000324649461844FEF710FF42
:1013D000387D40F08000387591E70120787504E091
:1013E000387D40F0400038750020BDE8F687009851
:1013F00045896D1E15EA5125704701460098FFF793
:101400000EB87CB500F0B1F8010037D1217D4A0655
:1014100034D5080606D500F032F808B1012076BDB3
:1014200000F049F800F0B0FA0546616A0098FEF74E
:101430009FFF010022D1A66AF07A40F02000F072EE
:101440003146A2682068FFF72AFAE16806F11C001D
:10145000FEF7C6FE294606F11600FEF7C1FE002182
:1014600006F11200FEF7B8FE00990120C87000983E
:10147000FEF795FF217D01F0BF01217576BD009833
:10148000226A4078012304F1300100F053BA1CB500
:101490000446FFF7B6FF01000CD169462046FFF76E
:1014A000F3FC010006D12069FEF716FF010004BF1E
:1014B0000021216016BD207D00F07F00207570475F
:1014C0002A4604F1300100F02FBA33B5040081B090
:1014D00001D109203EBD0022694602A8FFF7B0FBFA
:1014E00005002DD10098206020460299FFF796FA5A
:1014F000050021D194F82F00010607D4A079C10678
:101500001CD5216A0098FFF7B7F9A0600098C18840
:10151000A18020460021FFF7F8F805000CD1A06853
:1015200010B9002121610FE000212046FEF79AFE4C
:10153000206148B9122505E0042D01D1052501E0FF
:10154000280001D00020206028463EBD1CB500F0D8
:101550000CF8010008D1216921B10846FEF7BCFE54
:10156000010001D10021216016BD04466946FFF744
:101570008BBC38B50C4605466946FFF785FC010073
:1015800018D124B900212846FFF7BFF832BD002149
:101590002846FFF797F9042801D001000AD1214617
:1015A0002846FFF709FA00212846FFF7F2F8042839
:1015B00008BF002032BD31B58CB00C460022694610
:1015C0000CA8FFF73DFB050010D10C996846FFF70A
:1015D00025FA05000AD19DF82F00010648BF06250F
:1015E00004D41CB121466846FFF7E6F928460DB041
:1015F00030BD2DE9F14F86B00F46144600226946F2
:1016000006A8FFF71DFB0028814659D100982060ED
:1016100000994C690869A21E824228BF38604FD2E7
:10162000084600260178012918D10224019021469C
:1016300001A8FEF701FF10F1010F09D001280AD01F
:1016400000B9761C00984169641C8C42EFD32FE0EE
:101650004FF001092CE04FF0020929E0D0F820807A
:101660000AE0FEF7AEFD000108BF5E460AF1040A7B
:101670002D1F641E1CD065B900984146FEF778FE08
:10168000814608F1010898B9009800F1300A4FF43A
:10169000007500980178022906F1010B5046E0D14F
:1016A000FEF78CFD00B95E460AF1020AAD1EE0E7C6
:1016B0003E60009806610099087940F001000871C9
:1016C000484607B0BDE8F08F31B59AB002226946AE
:1016D0001AA8FFF7B5FA0099019102003FD11A99B3
:1016E00001A8FFF79BF9010003D1022101A8FEF731
:1016F0008CFD010033D19DF83300010648BF062060
:101700002DD49DF80A50E80715D409990098FFF7E1
:10171000B3F80446E80612D500990D910F94002104
:101720000DA8FEF7F2FF010019D100210DA8FFF767
:10173000C9F8010001D1072011E004280FD101A848
:10174000FFF728F9010005D134B10022214601A894
:10175000FEF73EFF010002D10098FEF720FE1BB00D
:1017600030BD2DE9F1438EB0022269460EA8FFF785
:1017700067FA06000098019009D10E9901A8FFF7B9
:101780004DF9060008BF082600F08680042840F0C6
:101790008380002101A8FEF750FF0546009841898B
:1017A000490204910DB907260CE0012D08BF02265D
:1017B00008D015F1010F08BF012603D00098FEF7ED
:1017C000B4FD064600F0E0F88046300045D10098B0
:1017D0002946FEF724FE0746009800F1300900F084
:1017E0005FF80B2220214846FEF70AFD2E2010212B
:1017F00089F8000089F80B1009F116004146FEF740
:10180000EFFC00982A464946FFF749F8202249464E
:1018100009F12000FEF7ECFC2E2089F82100009849
:101820000178039A032902BF416A8A42002209F122
:101830002001FFF734F80098448902E000F030F806
:10184000641E64B100980121C7627F1C0098C170BA
:101850000098FEF76AFD0600F0D0300003D101A821
:10186000FFF75FF80646300014D1099C414604F1A9
:101870001600FEF7B5FC00982A462146FFF70FF840
:101880001020E07201210098C1700098FEF787FDDA
:10189000064601E000F00AF830460FB0BDE8F083DC
:1018A0004FF4007200214846FEF7AABC00222946E8
:1018B00001A8FEF78DBE30B4002513E050F8042BCC
:1018C000D30744BFA9F101039A18091F042942F85C
:1018D000045BFAD213468C0744BF15809B1CC907D2
:1018E00048BF1D7050F8041B0029E7D130BC704779
:1018F00001461E4A531802EB81014A68187A516862
:1019000008471A4B02460020995C002900D0704716
:1019100010B501249C5403EB82019C184A68207A7C
:101920001368BDE81040184770B500F009F8AC68BE
:10193000A04770BD70B500F003F8EC68A04770BD1B
:1019400004460A4D2E1905EB84046568307A704709
:1019500038B50346054CE51804EB83035C68287A28
:10196000236901B0BDE8304018470000FC0A0020A0
:1019700010B5034C0348211D00F024F8207010BD61
:10198000080B00207C7800080020704770B50E4DD1
:101990006B7A04460120A3B96B7A0020E854687A78
:1019A00005EB80067460687A28440272687A421CEB
:1019B0006A72303008702F223A2048708A700020F6
:1019C000C87070BD0022E1E7FC0A00202DE9F14F4C
:1019D000B0B0924604910DF142013A9A2B9199468A
:1019E0004A7000200AE01AF8011B0498309A9047C8
:1019F0000028049000F0B6860D98401C0D909AF8CF
:101A0000000050B12528EED1002100220791089254
:101A100009910A920B910C9204E00D9800F0A4BE7B
:101A200041F001011AF8010F2028F9D023280CD029
:101A30002B2804D02D2805D0302809D00BE041F008
:101A40000201EFE741F00401ECE741F00801E9E7AA
:101A500041F01001E6E72A280FD1D9F8002052F80A
:101A6000040BC9F8002000280F9003D540420F90C6
:101A700041F004010AF1010A14E00F92DFF828385E
:101A80000AE00F98984205DA00EB800402EB44026A
:101A9000303A0F920AF1010A9AF80020A2F13000C0
:101AA0000A28EED39AF800002E2803D04FF0FF3218
:101AB0000E9229E01AF8010F2A2809D1D9F800005E
:101AC00050F8042BC9F800000E920AF1010A1BE03D
:101AD0002D280CBF0AF1010A002000220E92DFF827
:101AE000C8470BE040B90E9AA24205DA02EB820524
:101AF00003EB4503303B0E930AF1010A9AF80030DC
:101B0000A3F130020A2AEDD3ADF84010DFF89C07AC
:101B1000784400F5F3609AF8001000F03FFF08B138
:101B20001AF8010B8DF842009DF84200682805D193
:101B30009AF8000068280CD1622106E06C2804BFE6
:101B40009AF800006C2804D171218DF842100AF136
:101B5000010A12A806901AF801BBBBF125012CD08E
:101B60001C3900F0D081091F022940F2CC811339C1
:101B700000F02385093900F0C681891E00F0B88580
:101B8000491E00F06585491E022940F2BC81091FEB
:101B900000F05E85491F00F02881491E00F00D8588
:101BA000491E00F0D080C91E0DD0891E00F00585A9
:101BB000C91E00F0028500F0A6BD25238DF848302F
:101BC000012100F0ABBDD9F8000050F8044BC9F872
:101BD0000000002C059440F0A3802B994878002841
:101BE00000F099804FF0FF340FF6843000F0E2FEF1
:101BF000201A40F0B78500F092BD6D1E40F0A98517
:101C00003096079D12AF75B1309E17F8012B02A9CF
:101C1000304600F073FE002801D46D1EF5D1002877
:101C2000309640F09F850A9D3020002D8DF80400ED
:101C30000CDD309E012301AA02A9304600F06EFEA1
:101C4000002840F08F856D1EF4D13096059F089DC9
:101C500075B1309E17F8012B02A9304600F04EFEF8
:101C6000002801D46D1EF5D10028309640F07A8509
:101C70000B9D3020002D8DF804000CDD309E0123DB
:101C800001AA02A9304600F049FE002840F06A850A
:101C90006D1EF4D1309605980899099D471875B1C5
:101CA000309E17F8012B02A9304600F027FE0028CD
:101CB00001D46D1EF5D10028309640F053850C9D5F
:101CC0003020002D8DF804000CDD309E012301AA88
:101CD00002A9304600F022FE002840F043856D1E28
:101CE000F4D130969DF8400041077FF588AE202062
:101CF000002C8DF804007FF782AE309D012301AAED
:101D000002A9284600F00AFE002840F02B85641E38
:101D1000F4D1309573E60FF66440059000F0FFBCF7
:101D20000E9D002D04D5204600F064FE044607E019
:101D30002A46204600F068FE002814BF041B2C46EB
:101D4000089400F0ECBCD9F8001051F8040BC9F865
:101D5000001020F00004002121F0FF3512ABCDE986
:101D600002450593DDE9022306993C2413B90AB91B
:101D70000E9898B102F00F053035641EEEB23A2E7F
:101D8000A8BF2735120942EA03721B090D5508BF87
:101D9000002A03D005980D19A842EBD30819059025
:101DA000C4F13C020E98089282420ADABDF8401053
:101DB000821A4FF6EF7001400A92ADF8401000F021
:101DC000AEBC002840F1AB849DF8400000F0140048
:101DD000102840F0A4840F9B07990A985B1A1B1ADD
:101DE0009A1A002A40F39B84E5E32B99487820B1A6
:101DF0004FF0FF340FF65430F8E69DF842006228A9
:101E000061D0682817D06A283FD06C2806D0712886
:101E100047D074282CD07A281DD064E0D9F800105F
:101E200051F8040BC9F80010002868D14FF0FF34B6
:101E30000FF63030DAE6D9F8001051F8040BC9F883
:101E4000001020B94FF0FF340FF61830CEE60D9990
:101E5000018000F064BCD9F8001051F8040BC9F8F7
:101E6000001000284BD14FF0FF340FF6F820BDE6EC
:101E7000D9F8001051F8040BC9F8001000283ED121
:101E80004FF0FF340FF6DC20B0E6D9F8001051F81F
:101E9000040BC9F8001080B94FF0FF340FF6C420CE
:101EA000A4E6D9F8001051F8040BC9F8001020B9C5
:101EB0004FF0FF340FF6AC2098E60D9AD317C0E927
:101EC000002300F02CBCD9F8001051F8040BC9F81D
:101ED000001020B94FF0FF340FF6882086E60D99E8
:101EE000017000F01CBCD9F8001051F8040BC9F8BF
:101EF000001020B94FF0FF340FF6682076E60D99F8
:101F0000016000F00CBCD9F80020D21D22F00702BD
:101F1000C9F80020D2E900010832C9F80020CDE953
:101F20000201C80F02D007982D210AE0BDF8400039
:101F3000810702D507982B2103E0C00705D5079834
:101F4000202112AA1154401C0790DDE902230799B1
:101F500012A8CDE92C2308444BF0200161290590FB
:101F600021AC0BD00E99002902D506210E9105E077
:101F700001BF4BF02001672901220E92DDE9022307
:101F800059004915491C0DD11A030BD0ABF161055D
:101F900003211A2D089102D20FF6E41110E00FF67A
:101FA000E4110DE059004915491C0DD11A030BD15C
:101FB000ABF1610503211A2D089119D30FF6CC114D
:101FC000032200F04DFDAAE3DDE90201CDE92E0177
:101FD000DDE92E2323F00047B7F5801F22F000062D
:101FE0000DD20022002F08BF002E009203D116E070
:101FF0000FF69411E4E76A4600F03EFD0FE0DFF8CB
:10200000DC08DFF8DC1800EB17500090DDE92E2328
:102010004FF0FF301940DFF8CC7810403943CDE95C
:1020200002014BF0200061280DD10598302101708C
:10203000821CBBF1610F05920CBF782158214170C1
:102040000798801C0790DDE9020120F0000231F0C2
:10205000004308BF002A02D10026002568E14BF0AA
:102060002008B8F1610F40F0B4800E98002847BFF7
:1020700021210191401C0190019FDDE92C017F1C71
:1020800000220023DDE9024500F02EFD00998DF8C5
:10209000842038BF85F00045091F002F00910DF105
:1020A000850653DD204629460022002300F034FD3A
:1020B0004CD24800400D00F11C0212D0002A10DD65
:1020C00040F2FF739A4206DBDFF81C1805F000406F
:1020D0000143002011E06FF31E5141EA02512046F6
:1020E0000BE024F0000035F0004108BF00280FBFCE
:1020F00029461C22294600F027FD04460D4600F023
:10210000C1FDFF1F002F804609DD00F0D9FD02460A
:102110000B462046294600F0E5FD04460D46F01D1D
:102120000721B8F1000F0CDD491E5EBF08F00F0259
:1021300000F8012D4FEA2818F3D502E0002200F83C
:10214000012D491EFAD5C61D002FABDC0DF185000F
:10215000361A01988642D8BF304600280DF1850412
:1021600030D4B04206DA0DF185010A5C082AA8BF16
:102170000F2100DA0021024621AB134400E0401E8B
:1021800013F80159521E8D42F9D00F2904D10DF1D7
:1021900085018B5C5B1C8B54002A04D50099091DBA
:1021A00021AC401C0091411E0CD46218ABF13A06E0
:1021B00013783033DDB23A2DA8BFF318491E02F868
:1021C0000139F5D50E99002940F1B080421E0E92DA
:1021D000ACE00099DFF8142747F29750414391FB98
:1021E000F2F2DDE92C45009225F00045D2F107021C
:1021F00004DD2046294600F04EFB0BE05242002051
:10220000DFF8EC1600F047FB02460B462046294655
:1022100000F0DAFD0446B8F1660F0E9806BF009F85
:102220000A3706273F18142FC8BF142730200D4641
:102230008DF884000DF18506002F39DD20462946F2
:1022400000F0E6FE01460A4606F1080304200A26CD
:10225000B2FBF6F606EB860EA2EB4E02303203F826
:10226000012C0A22B6FBF2F202EB820EA6EB4E061E
:102270003036401E03F8026DE9D1083F002F03F10C
:102280000806D9DD084600F0D7FE02460B46204678
:10229000294600F027FD0022DFF8583600F0DAFE6C
:1022A00004460D46CAE700BFCBCCCC0C1C56000040
:1022B0000DF18500361A0DF1850404E00098401EEA
:1022C000761E0090641C20783028F7D0B8F1660F95
:1022D00002D10099491C04E0B8F1650F0CBF01213F
:1022E00000210E9808188642B8BF701E00281DD421
:1022F000B04204DA215C3429C8BF392100DC302126
:102300000246631E9D1800E0401E15F80169521E2A
:102310008E42F9D0392902D1A15C491CA154002A6E
:1023200004D50099491C1C46401C00910646009D9E
:1023300000F062FF406A0778DDF8388030B200288C
:1023400002DC01260FF248644BF02000662808BF2B
:102350006D1C16D0672846D128B210F1040F48DB57
:10236000404546DA9DF840006D1C010703D430B2A9
:102370004045B8BF804628B2B8EB000848BF4FF0D0
:1023800000080FFA85FBBBF1000F00F3B580089839
:10239000411C0891302205990A54B8F1000F03DC62
:1023A0009DF84000010704D50898411C0891059943
:1023B0000F5418EB0B0FB8BFC8F100052DB26842DF
:1023C0000B90A84432B29045B8BF4646059B08988A
:1023D00036B2099632462146184400F041FBA8EB7C
:1023E00006000C90D2E0BBF1610F17D14FF0700BDB
:1023F00019E030B2404504DA9DF840100A0758BF92
:102400008046B8F1010848BF4FF00008BBF1670FE4
:1024100014BF4FF0450B4FF0650B04E0BBF1410FCB
:1024200008BF4FF0500B0898411C0891B8F1000FFD
:10243000059914F8012B0A5403DC9DF840000107AC
:102440001AD50898411C0891B8F1000F05990F544E
:1024500012DD761E30B280450598089BB8BF46460F
:1024600032B22146184400F0FBFA089936B27118CE
:102470000891A8EB06000B9005980899084429B22A
:10248000002980F800B003D42B224270821C04E0A3
:102490002D2242700D46821C6D4200212CAB284635
:1024A0000AE004460A2094FBF0F000EB8005A4EB60
:1024B000450403F8014B491C00B20028F1DC012956
:1024C00006DC4BF02000652804BF302002F8010B29
:1024D00000292CAB08D1302002F8010B06E0491E80
:1024E000585C303002F8010B0029F8DC0599089897
:1024F0000844121A099249E030B229B288421CDA23
:102500000598089B32B22146184400F0A9FA0899B0
:1025100036B27118ABEB0606B8F1000F08910B96B6
:1025200003DC9DF84000020704D50598475409993B
:10253000491C0991CDF8308028E00598089B2AB203
:102540002146184400F08CFA0898761B5844B8F1DC
:10255000000F089003DC9DF840100A0703D5411CCA
:10256000089105990F5430B280450598089BB8BF73
:10257000464632B204EB0B01184400F071FA089899
:1025800036B230180890A8EB06000B909DF840007A
:1025900000F01400102840F0C280079A08990B98A8
:1025A0008A18099982180C988A1882180F98824202
:1025B00080F2B580821A0A92B1E09DF8420062284A
:1025C00008D068280ED06A2814D06C281FD0712833
:1025D00010D01CE0D9F8001051F8040BC9F8001015
:1025E000C0B21AE0D9F8001051F8040BC9F8001075
:1025F00080B212E0D9F80020D21D22F00702C9F8FB
:102600000020D2E900010832C9F8002006E0D9F81C
:10261000001051F8040BC9F800100021CDE90201A7
:102620009DF8400001075AD5DDE90223002B08BFC1
:10263000002A54D04BF02000782850D1079812A9D6
:1026400030220A54401C431C079301F800B046E0B6
:102650009DF84200622808D068280ED06A2814D05D
:102660006C281FD0712810D01CE0D9F8001051F848
:10267000040BC9F8001040B21AE0D9F8001051F864
:10268000040BC9F8001000B212E0D9F80020D21DE6
:1026900022F00702C9F80020D2E900010832C9F887
:1026A000002006E0D9F8001051F8040BC9F800101A
:1026B000C117CDE90201002902D507982D210AE0B2
:1026C000BDF84000810702D507982B2103E0C00721
:1026D00005D50798202112AA1154401C079012A872
:1026E00007990144059102A8594600F04FF816E0F9
:1026F00001200790D9F8000050F8041BC9F8000029
:102700008DF848100BE025210122BBF1000F8DF858
:102710004810079203D08DF849B0022107910F9A13
:1027200007980A990C9C121A0898521A0B99121AB7
:102730000998521A121A9DF84000141B41073FF5E0
:1027400060AA2020002C8DF804007FF75AAA309E42
:102750002546012301AA02A9304600F0DFF800282F
:102760003FF44BAA4FF0FF3031B0BDE8F08F0000CE
:102770007072696E74665F733A20626164202573BB
:1027800020617267756D656E740000002DE9FC4371
:1027900007466F293E6908BF082405D041F0200094
:1027A000782814BF0A2410243C25D7E90023642983
:1027B00018BF69299046994605D1002B03D5D8F159
:1027C000000869EB4909B9F1000F08BFB8F1000F23
:1027D0000CD1386B50B9082C39D197F83800010763
:1027E00035D530203B2586F83B0030E08DF80010D1
:1027F000404649462246E31700F002FD3032D0B28F
:102800006D1E3A28019504DB9DF80000A0F15101EE
:102810008A187255404649462246E31700F0F0FCFC
:1028200080465FEA010908BFB8F1000F03D0F868DD
:1028300071198842DCD3082C09D197F838000107B8
:1028400005D5705D302802D06D1E30207055C5F161
:102850003C02BA617119F960386B824208DA821A57
:102860003A624FF6EF70398F01403987BDE8F38344
:1028700000280ED597F8380000F01400102808D171
:102880007B6B7969386A5B1A1B1A9A1A002AC8BFCF
:102890003A62BDE8F3832DE9D04306460F4614465D
:1028A0004FF00008DFF8509012E0E00707D54246ED
:1028B0004B463046394600F0CDFB06460F464046B3
:1028C000494642464B4600F0C5FB641080468946A7
:1028D000002CEAD130463946BDE8D08302FCFFFF28
:1028E000FFFF0F800000E03F0000F07FA0860100A6
:1028F0000000F03F84D797410000244010B5034604
:102900000C461146A0689847A06020B1E06A401CC0
:10291000E062002010BD4FF0FF3010BDF8B5054655
:102920000E4617461C4600205CB117F8011BB06824
:10293000A847B06030B1F06A401CF0620020641E0D
:10294000F3D1F2BD4FF0FF30F2BD00007072696E3E
:1029500074665F733A20256E20646973616C6C6FD6
:10296000776564007072696E74663A2062616420F3
:10297000256E20617267756D656E74000000000041
:102980006E616E004E414E00696E6600494E460013
:1029900030000268531C036011707047C9B202789E
:1029A0008A421AB11CBF10F8012FF9E718BF0020A6
:1029B00070472E0080B500B906A005490B681BB111
:1029C00022220021984701E000F09DFC222002BD58
:1029D000180B0020636F6E73747261696E742068E7
:1029E000616E646C65723A20626164206D65737318
:1029F0006167650000F1010310F8011B11B110F8C7
:102A0000011BFBE7C01A7047C9B2830706D0521EEC
:102A100022D310F8013B9942F7D11FE0083A13D3B3
:102A200002F1040241EA012141EA014150F8043B6C
:102A3000121F21BF4B40A3F1013C2CEA030C1CF0F8
:102A4000803FF3D0C9B2001F083210F8013B521E7C
:102A500028BF91EA030FF8D818BF0120401E704725
:102A60004AB1000011F8013B521E00F8013B1CBFA7
:102A700011F8013BF8E7704710B5144600F002F872
:102A8000226010BDC1F30A5343B14A0012F5001F82
:102A900028D2A3F2FE32A1EB0251704750EA410C5A
:102AA00020D001F0004C31EA0C01B1FA81F204BFF0
:102AB000B0FA80F3D2180B3AB2F120032CBF00FA1F
:102AC00003F1914041EA0C013EBFC2F1200C20FA13
:102AD0000CF319439040524240F2FD33D21A01EBFD
:102AE00003517047002270474FF4001C1CEB410F4C
:102AF00094BF1CEB430F09E041EA030C50EA4C0C75
:102B000052EA0C0C03D2994208BF9042704714BF9E
:102B10008B428242704770474FF4001C1CEB410F00
:102B200094BF1CEB430F09E041EA030C50EA4C0C44
:102B300052EA0C0C03D28B4208BF8242704714BF8A
:102B40009942904270477047124254D440F2FF7C41
:102B50001CEA11530FD0634531D09B1863453CBF2D
:102B600001EB0251704701F0004141EA0C51002095
:102B7000AFF30080704750EA410320D001F0004CD1
:102B800091EA0C011CD0B1FA81F30B3B9A420DD9AA
:102B9000D21A994051EA0C01C3F1200C20FA0CFC26
:102BA00061449840531C40F2FF7CD7E7914041EAD2
:102BB0000C01C2F1200C20FA0CF31943904070472D
:102BC000B0FA80F31533202BE0D3202AEED3203A3D
:102BD000203B9A4209D9D21A00FA03F141EA0C01CA
:102BE0000020531C40F2FF7CB8E700FA02F141EAF2
:102BF0000C0100207047524240F2FF7C1CEA115346
:102C00000DD06345DBD0B2EB030C3CBFA1EB02510E
:102C100070470CF1010221EA035141F4801150EA9E
:102C2000410CCCD001F0004C352A27DC30B481EACD
:102C30000C01B2F1200309DAC2F12003044601FAC3
:102C400003F5D0402843D1409C400CE0C3F1200262
:102C5000450020FA03F418BF44F0010421FA03F000
:102C600091400C43002174F1004550F1000051EBFC
:102C70000C01244230BC7FF47BAF704761460020DA
:102C800076E77047C1F30A5340F2FE329B1A14DD17
:102C9000D3F120034FEAE17208DDC90241EA505145
:102CA00041F00040D84080185040704703F2E130B6
:102CB00010B1D24382F00040704700207047704747
:102CC000C11768B14840401AB0FA80F29040D21C57
:102CD000C907C2F5846241EA025202EBD0214005E5
:102CE0007047704770B44FF0004591EA030F40F110
:102CF0000D836B40841A71EB030603D2001BB141B4
:102D0000121973414FF4001C1CEB410F34BF7CEBD4
:102D1000430442E00C0DA4EB1356352E4FDC45EA7C
:102D2000C323DB0A45EAC121C912B6F120050DDD36
:102D300063FA05F6EB4086EA0305124218BF45F038
:102D40000105C01851F100010CD213E062FA06F53A
:102D5000F2405540F3415A40B340F3405A40801886
:102D6000594107D349085FEA30005FEA350528BFBB
:102D700045F0010501F58011420875F1004250F15E
:102D8000000041EB04514E0016F5001F70BC38BF27
:102D900070470020090D090570471CEB410F10D248
:102DA00052EA43060BD0BCEB410F05D80C0DAB43E8
:102DB000661E342EB6DD02E0AB438018594170BC6C
:102DC000704770BC70470000F0B540F2FF7581EAB3
:102DD000030C0CF0004C15EA11541DBF15EA1357F3
:102DE000AC42AF42E5E0BC41C1F31301C3F31303AE
:102DF000801A994143F4801304D2641E4000494173
:102E000080185941C90241EA5051B1FBF3F603FB66
:102E10001611A2FB0675D7EBC020A94102D2761E7F
:102E200080185941C90241EA5051B1FBF3FE03FB3E
:102E30001E11A2FB0E75D7EBC020A94103D2AEF143
:102E4000010E80185941890241EA9051760546EAFF
:102E50008E2EB1FBF3F603FB1611A2FB0675D7EB22
:102E60008020A94102D2761E80185941C90241EA48
:102E700050514EEA060EB1FBF3F603FB1611A2FB0E
:102E80000675D7EBC020A94102D2761E80185941A1
:102E9000C90241EA5051B1FBF3F703FB1711A2FB42
:102EA0000735D3EBC020A94167F100070CBF0042F2
:102EB00047F0010766F3D5274FEA1E31B80814F52D
:102EC000806412DDBD0775F1004250EB0E5051EBEE
:102ED000045111F5801F5CBF41EA0C01F0BD4CF0BC
:102EE0007F6141F0E0410020F0BDBD076D0840EA80
:102EF0000E5041F48011D4F10104B4F120060ADA35
:102F0000C4F120060200E04001FA06F3E140184354
:102F1000B24015430EE0342C13DCC6F1200445EA20
:102F200040056D0820FA06F2154321FA06F0A1408B
:102F30000D43002175F1004250F1000051EB0C01EE
:102F4000F0BD00205FEA0C01F0BDCFB992185B41E3
:102F5000B3FA83F704BFB2FA82F6BF190B3FB7F199
:102F600020062FBF02FA06F3BB40C7F1200622FA63
:102F700006F638BF3343BA401CB1E419641E33E788
:102F80007F4231F00041B1FA81F404BFB0FA80F61B
:102F9000A4190B3CB4F120062FBF00FA06F1A140A2
:102FA000C4F1200620FA06F638BF3143A0403C1B8E
:102FB0001AE7AC421ABF05EA1357AF4212E050EAD3
:102FC00041061CBF52EA4306BFE750EA41073046BC
:102FD00061461CBF41EA0551F0BD52EA430C08BFEF
:102FE000C143F0BD00204FF4001616EB410F98BF0F
:102FF00016EB430F08BF16EB410F24BFC14305E09A
:1030000016EB430F0CBF61464CEA0551F0BD0000C2
:10301000400D491840EA81200CD2490DA1F580618C
:10302000491C40F0004005DBD1F11F0154BFC840EE
:10303000C017704700207047014648B1B0FA80F1D0
:103040008840C91CC1F58461090501EBD021400508
:1030500070470000B0B581EA030C0CF0004C40F260
:10306000FF7515EA11541DBF15EA1357AC42AF4264
:1030700039E0E41923EA455343F48013C90241F0CF
:10308000004141EA505EC7021100A7FB020200287E
:103090004FF00000EEFB01204FF00001E3FB0721A1
:1030A00018BF42F00102401800214941E3FB0E0124
:1030B000A4F580640F0302D252004041494154F10B
:1030C00001046CDD470872F1004250F1000051EB41
:1030D0000451A1F580115CBF41EA0C01B0BD4CEA7E
:1030E00005510020B0BD05EA1357AC4214BFAF42F2
:1030F00041E050EA410E1CBF52EA430E02E0614635
:103100000020B0BD24423C441BD15FEA070EF6D03C
:10311000090302BF01460020AEF1140EB1FA81F797
:10312000AEEB070401FA07FE0C37C7F1200100FAE5
:1031300007F7C8404EEA000E23EA455343F48013D4
:10314000A2E733F00043B3FA83F704BFB2FA82FE7A
:1031500077440B3FE41BB7F1200E2FBF02FA0EF3AA
:10316000BB40C7F1200E22FA0EFE38BF43EA0E0321
:10317000BA40641C82E750EA410E14BF52EA430E83
:103180006FF000014FF4001717EB430F8ABF194689
:1031900017EB410FB5E74CEA05510020B0BDD4F163
:1031A0000104B4F120070FDAC4F12007520828BF48
:1031B00042F0010210FA07F501FA07F7E1BF2A43CE
:1031C000E0403843E1400FE0352C98DCC7F12004A3
:1031D00052EA400220FA07F218BF42F0010231FA27
:1031E00007F0A1400A43002172F1004250F10000B3
:1031F00051EB0C01B0BD00000048704710000020EA
:10320000D3BBD9B1B2F5803F5BD2022A1ED98C461E
:10321000B1FBF2F102FB11C31B0443EA1043B3FB01
:10322000F2FC02FB1C3380B240EA0343B3FBF2F032
:1032300002FB103240EA0C4000237047022A05D9F5
:103240008446B0FBF2F002FB10C270474AB105D1D0
:1032500000F0010249085FEA3000704700220023B5
:10326000704700F009B90B000200002100207047F0
:10327000F7D3002200237047904271EB030CF2D386
:1032800070B5B1FA81F4B3FA83F52C1BA340C4F1F5
:10329000200532FA05F63343A2405FF00046E640CF
:1032A00002E05B085FEA3202841A71EB030524BF77
:1032B000204629467641F4D302000B00300000215D
:1032C00070BD70B5B1FA81F4B2FA82F5C4F1200490
:1032D0006419B4F12006DAD3B2405FF00044F44040
:1032E000002502E052085FEA3303C61A71EB020EB2
:1032F00024BF3046714664416D41F3D302000B0098
:103300002000290070BD012000F0B8B8841A71EBCC
:10331000030604D26E40001BB141121973414FF4F1
:10332000001C1CEB410F34BF7CEB430683E00C0D0B
:10333000A4EB1356362E00F37C80012E45EAC323FE
:1033400041DC43EA525312BFD20292025B082405C9
:1033500045EAC12141EA5051D2EBC020994125D420
:1033600007D1B0FA80F610FA06F162D000202036BC
:1033700008E0B1FA81F6B140C6F1200220FA02F26B
:103380001143B0404FEAF474B4EB465434F00106F4
:103390004FEA74040AD8D6F50016760D04F00044FE
:1033A000F04061FA06F25040F1404840C00A40EA5D
:1033B000415021F0004128BF5FEA500550F1000064
:1033C00044EBD12135E0DB0A45EAC121C90AB6F157
:1033D00020050EDD42EA0242120CC5F1200603FA76
:1033E00006F6EB4042EA06056D42984161F10001A4
:1033F0000DE062FA06F5F240554063FA06FC82EAF7
:103400000C02F3405A406D42904161EB030111F40C
:10341000801F05D1641E620502D06D004041494104
:1034200021F48011430875F1004350F1000041EB95
:10343000045170BC70471CEB410F15D223F00043C0
:1034400052EA43060BD04FEA4C0CBCEB410F04D8B8
:103450000C0D661E342EB7DDEBE7801A994150EA59
:10346000410608BF0021E4E708BF1CEB430F28BF5B
:103470006FF00001DDE700007047000080B5AFF39A
:103480000080024A11001820ABBEFBE726000200B4
:1034900078B5040085B04BD004F13405287820BB02
:1034A00000212177DFF8A406DFF8A416DFF8A426B0
:1034B000E8642965EA66DFF8A006DFF8A01668650B
:1034C000A965DFF89C06DFF89C16E8652966DFF839
:1034D0009806DFF898166866A966286F10B9DFF8B5
:1034E000901629672046296F8847032028702046B8
:1034F00000F040F8E0B96946204600F02DFCB8B96C
:103500009DF810109DF81100AA68012A07D1002922
:103510000ABF00284FF400704FF4807002E00021D1
:10352000A96200E0A862E168204600F0F8FC10B152
:10353000012006B070BD00F071FE0646204600F086
:10354000BBFD04280ED000F069FE801B10F1010FB6
:10355000F4D14FF0004068600121297000222263FD
:103560000320E6E700206860002121630120287025
:103570000020DEE72DE9F0478CB0002105460391DD
:103580000491059106914FF4002001F01BF806000C
:1035900005F1340405D1012020704FF00061616015
:1035A00027E1DFF8DC05B6FBF0F70797A86908907C
:1035B000012804D12868016841F01001016003A9C5
:1035C00083B068461822FFF74BFA0EBC286801F05A
:1035D0007FFB08B100F0FFB8286801F091FB08B14B
:1035E00000F0F9B87F00B6FBF7F0DFF89815B1FBF3
:1035F000F0F0401C01F050FE00200090824600F0E8
:103600000DFE8146286801F02BFC002600284FF0B3
:1036100080584FF080671BD1286801F044FC78B1D6
:10362000E660286801F01CFC002811D1E068012840
:103630001FD12868002101F04AFC00280FD118E0B2
:103640000120E060F5E72868002101F040FC002837
:1036500070D12868DFF8301501F044FC002840F0F4
:10366000AC8000F03DFD82460098401C4FEADA76BF
:1036700000904FF6FF700099814201D2002EE2D0F7
:103680000099814253D25FEA4A004DD50121A160E1
:10369000A86901283FD15FEACA103CD54FF40071F8
:1036A000A1622868026842F008020260286801F0FE
:1036B000A9FC00283ED12868416B4A0107D400F0DC
:1036C000ADFD00F092FDF6D14FF000407EE0876343
:1036D0002868416BC80270D5E16E012088472868D0
:1036E000026842F0040202602868416B8A0105D436
:1036F00000F094FD00F079FDF6D1E5E74FF00071A0
:1037000081632868416BCA0211D4132101604FF014
:10371000FF302A6890630120ADF80000286801F0AE
:10372000F9FA50B9384651E00020A060F3E74FF0B5
:1037300080704BE00028EED048E0A068032833D02A
:10374000286801F0E4FB002840D100F0C9FCE063E8
:1037500000F052F82064082100F04FF860640C215A
:1037600000F04BF8A064A06803281DD028686946C3
:1037700001F0F7FB50BBA068032815D0BDF800107E
:1037800061610904286801F0D6FBF8B900F0A8FCD3
:10379000E06200F031F82063082100F02EF8606349
:1037A0000C2100F02AF8A06300F026F8000D20613B
:1037B00001A9284600F0ECF908B1404606E062692C
:1037C00028681204002301F03EFB30B10121217072
:1037D00062681043606001200BE000F089FB40B19B
:1037E0002A68DFF8A81391636168084360600120CC
:1037F00020700CB0BDE8F0870421286801F0A0BA61
:103800002DE9F04F87B006460C469246984600F0E8
:1038100005FD0090254606F134071CB9786840F094
:1038200000609EE03878012840F09880002179609F
:1038300008EB0A02386A904204D2796841F00071BC
:1038400079608FE000F06AF90191012818BF4FEA12
:103850004A2A4FEA48229021029203910222002133
:1038600004920591069101A9306801F06CFA00F00C
:103870004DF906D3022030635146306801F08FFACB
:1038800005E0012030635146306801F07DFA0028E0
:10389000DFF8F84241D1DDF808A0DDF840B030682B
:1038A000416B11F4957F2CD1406B010414D5BAF112
:1038B000000F11D0AAF1200A4FF00809306801F07A
:1038C00019FA2870010A6970020CAA70000EE870DB
:1038D0002D1DB9F10109F1D100F0A0FC0099401AA9
:1038E000584502D2BBF1000FD9D130688463012062
:1038F000796841F00041796038700021316303201C
:1039000031E000F0FBF80BD5B8F1020F08D3B9682D
:10391000032905D001F072FA10B100F007F922E096
:103920003068416B0A0704D58463786840F008006A
:103930000EE0416B8A0704D58463786840F002008A
:1039400006E0416B8A0606D58463786840F0200063
:1039500000F0CEF806E000F0C4F804E0786840F02B
:1039600000507860012007B0BDE8F08F2DE9F84FD6
:1039700088B006460C461546984600F04FFC01906C
:10398000A24606F134071CB9786840F00060A3E055
:103990003878012840F09D800021796008EB05020D
:1039A000386A904204D2796841F00071796094E0FD
:1039B00000F0B4F802914FEA48220128039218BFA0
:1039C0006D0290210022049105920692079202A9AD
:1039D000306801F0B8F900F099F806D32020306380
:1039E0002946306801F0F1F905E0102030632946DE
:1039F000306801F0DFF90028DFF8904148D1039DDD
:103A0000DDF848B03068416B11F48D7F34D1406BE4
:103A100041041ED5EDB1203D4FF008091AF8010B05
:103A2000009001461AF8010B41EA00210091084676
:103A30001AF8011B40EA014000901AF8011B40EA05
:103A4000016000906946306801F055F9B9F101094B
:103A5000E4D100F0E3FB0199401A584502D2BBF1D2
:103A6000000FCFD1306884630120796879603870A5
:103A700000223263032031E000F040F80BD5B8F1AA
:103A8000020F08D3B968032905D001F0B7F910B1C6
:103A900000F04CF822E03068416B0A0704D58463DB
:103AA000786840F008000EE0416B8A0704D5846313
:103AB000786840F0020006E0416BCA0606D58463D0
:103AC000786840F0100000F013F806E000F009F804
:103AD00004E0786840F000507860012009B0BDE84B
:103AE000F08FDFF8081481630120387000207047E0
:103AF000786001213970002030637047C16821F07F
:103B00004001C1603068416BCA0570473068C168C8
:103B100041F04001B8F1020FC160704703203870D6
:103B20003268D1624FF0FF31B868704731688C63FA
:103B300000217A6810437860012038703163704743
:103B400005926946286801F0FEB80000A5780008D3
:103B5000A9780008317A0008172B0008A17800081E
:103B6000472B0008832C0008BF2C0008E32C00081A
:103B7000116B0008706840F00060706070470000D2
:103B800000350C0010210100000010C1FF0FE01FE4
:103B900030B500F13403DA6A920F0A70DC6AA40EC1
:103BA00004F00F044C70DA6A120E02F003028A70FD
:103BB000DA6A120CCA70DA6A120A0A71DA6A4A718F
:103BC0001C6B240DCC804FF400741A6B120C02F0A5
:103BD0000F020A721A6BD20B02F001024A721A6BC0
:103BE000920B02F001028A721A6B520B02F0010270
:103BF000CA721A6B120B02F001020A7300224A7396
:103C00009A68002A40F08D80186B40F6FC7202EA38
:103C10008002586B42EA90720A610122586BC00E12
:103C200000F007000875586B000E00F0070048759B
:103C3000586B400D00F007008875586B800C00F041
:103C40000700C875586BC00B00F0070008760869BC
:103C5000401C98610D7E05F00705AD1C02FA05F5C4
:103C6000684398610D7A05F00F05AA40DA61520A9F
:103C7000504318625C62586B800B00F0010048767C
:103C8000586BC00900F07F00887693F8340000F08C
:103C90007F00C876986BC00F0877986B400F00F0D4
:103CA00003004877986B800E00F007008877986BC8
:103CB000800D00F00F00C877986B400D00F00100F8
:103CC00081F8200001F12100002101709A6B120C93
:103CD00002F0010242700122996BC90B01F001014F
:103CE0008170996B890B01F00101C170996B490BCF
:103CF00001F001010171996B090B01F001014171A2
:103D0000996B890A01F003018171996B090A01F02D
:103D10000301C171996BC1F3460101724272002027
:103D200030BD012A0DD1186B5A6B000400F47C10D1
:103D300040EA124008610869DC61401C8002986119
:103D400097E70068DFF8C01481630120596841F0EB
:103D500080515960187030BD2DE9F84F96B0054676
:103D60000E4600F05BFA80462868DFF89CA400F05D
:103D7000B8F980014FF000090DF1180B05F1340777
:103D800016D54FF400602968C1F838A07A6810434E
:103D9000786001203870814600F0AAF830B12968B7
:103DA000C1F838A0786001203870814648467BE130
:103DB0002868402100F0DDFF10B179687960E2E702
:103DC000796900F005FA0028F7D1402101914FF000
:103DD000FF32022100920391602201210292CDF86C
:103DE00010900591FFF7ADFE286801F0E9F878B171
:103DF000E3E7406B010406D5082400F001FA641ED5
:103E00004BF8040BF9D100F009FA00F050F920D07A
:103E10002868416B11F4957FEBD0416B0A0748BFCE
:103E20000820B0D4416B8A0748BF0220ABD4406B56
:103E3000810648BF2020A6D42868416BCA040BD550
:103E400000F058FF4BF8040B00F0E8F900F02FF9F0
:103E5000F2D14FF0004096E7DFF88C1281630698AC
:103E6000C0F3811030700698C0F34010707006984F
:103E70000699000A00F47F4040EA1160708006A8AD
:103E800041680A0202F47F020B0A42EA016203F46B
:103E90007F431A4342EA116272608168317282681C
:103EA000120A72728168090D01F00F01B172826805
:103EB000C168120C02F47F4201F0FF031A43890A21
:103EC000B28101F03F01B173C168090A01F0030139
:103ED000F173C168C1F303113174017B01F00F016B
:103EE00071740069000EB07456E700003A0F0018B4
:103EF00028684FF4007100F03CBFC26B0A60036C8D
:103F00004B60426C8A60836CCB60C26C0A61036D4B
:103F10004B61426D8A61806DC861002070472DE958
:103F2000F043054605F1340689B003208846307019
:103F30000024B168032918BFB8F5004F4AD0B8F57E
:103F4000804F4FF080674FF400691BD100F044F9B7
:103F500000F0C6F8800148BF4F4633D46946284672
:103F600000F0C4F8F0B9019841032BD500F02FF907
:103F7000070027D12868022100F0BAFF070021D1ED
:103F800000271FE0B8F1000F20D100F025F900F064
:103F9000A7F8800148BF4F4614D46946284600F070
:103FA000A5F808B107460DE00198C1030AD500F055
:103FB0000EF9070006D12868002100F099FF0700DC
:103FC00008BF002770680743776007E0706840F01B
:103FD000006002E0706840F0805070607068DFF848
:103FE000287210B129688F634BE04FF4002000F075
:103FF000E9FA010043D068680390AA680492CDF8FA
:1040000014802869DFF804220690B1FBF2F2686997
:10401000904226D2B36AB3F5007F22D0B3F5807FF9
:1040200014D1DFF8E82130B991421AD9DFF8E00164
:10403000B1FBF0F015E04300B1FBF3F3934210D96C
:10404000DFF8CC21B1FBF2F107910BE0DFF8C431CE
:1040500018B14FEA400EB1FBFEF1994228BF07921A
:1040600000D20790A869089003A983B06846182277
:10407000FEF7F6FC0EBC286800F02AFE02E0FFF70F
:1040800079FD01244FF4007100F0ACF828B12968E3
:104090008F6301247268104370600120307009B092
:1040A0002046BDE8F083000017B0BDE8F08FA0EB1C
:1040B000080010F1010F704738B504460025A16CC7
:1040C0002068090400F071FF18B1A16B0843A063D8
:1040D00004E0206800F005F8C0F34325284632BD0F
:1040E0002868002100F02CBE3A0F0018F8B588B0FF
:1040F00005460E4600F092F8074600F06DF8286875
:10410000082100F036FE002400285ED1A96C00F0E2
:104110005FF8002859D1082203924FF0FF310222A4
:10412000029105923021012204910694079202A97E
:10413000286800F008FE286800F0DCFE002844D162
:1041400000F058F8416B12D10A0307D434B900F0DB
:10415000D1FD0090012400F053F8019000F05EF8CA
:10416000C01B10F1010FEBD14FF000402DE00A070A
:1041700048BF082108D4416B8A0748BF022103D4F5
:10418000416B8A0603D52021816308461DE0224940
:1041900081630198010201F47F01020A41EA006192
:1041A00002F47F42114341EA10613160009801023C
:1041B00001F47F0141EA0061000A00F47F400143FD
:1041C000009841EA10617160002009B0F0BD71698A
:1041D0002868090400F07BBE08220021684601F02F
:1041E0006FB84021286800F0C4BDA0EB090010F1B1
:1041F000010F70472868416B40F22A521142704704
:10420000286800F077BD0000FF0FE01F80F0FA0281
:1042100000E1F50541787D013A0F0018014840683A
:10422000704700BF000000202DE9F84F064600252A
:104230003068DFF8BC77DFF8BC470105A84620D519
:10424000F06E68B1202817D0402804D0602818BF2D
:10425000802809D013E0226842F48032226004E012
:10426000002100F0ABF9054655B9F968F06E21F070
:10427000E0010143F96004E000F09AF9F3E7012559
:10428000A8463068C10424D5306FC0B1B0F5807F36
:104290001AD0B0F5007F06D0B0F5407F18BFB0F55A
:1042A000806F04D013E0216841F4803121607DB932
:1042B000F968306F21F4E0610143F96009E0002101
:1042C00000F07CF90546F2E700F072F9FAE7012503
:1042D000A8463068810306F184092DD5E06CC10041
:1042E0004FF0000A0AD4E06C40F08050E0644FF0D8
:1042F000010AE06C00F0805000900098DFF8F8169A
:10430000086840F480700860FFF788FF8346DFF894
:10431000E8060168CA0500F18B80FFF77FFFA0EB7C
:104320000B000328F3D30325A846BAF1000F03D0EE
:10433000E06C20F08050E0643078C10705D5E26F72
:10434000F06B920840EA8202E2673178880705D56F
:10435000E16F306C21F00C010143E16731784807CF
:1043600005D5E16F706C21F030010143E1673178D0
:10437000080705D5E16FB06C21F0C0010143E1678A
:104380003178C80605D5E16FF06C21F44071014326
:10439000E1673178880605D5E16F306D21F4406121
:1043A0000143E1673168880505D5E16F706E21F43E
:1043B00040210143E1673168480505D5E16FB06EE2
:1043C00021F440110143E1673178480605D5E16FDA
:1043D000706D21F440510143E1673178080605D53D
:1043E000E16FB06D21F440410143E1673168C805D8
:1043F00005D5E16FF06D21F440310143E16731688B
:10440000C80205D5F968306E890840EA8101F96073
:104410003168880445D5E16F706F21F04061014338
:10442000E167706FB0F1006F33D100F0BCF838E095
:10443000002D7FF479AF386810F440701CBFD9F8B4
:104440000C1088420BD03868396841F480313960EB
:1044500020F440703A6822F480323A603860C00735
:104460000FD5FFF7DBFE05463868810709D4FFF753
:10447000D5FE401B41F289318842F5D34FF0030845
:1044800053E73968D9F80C0021F4407101433960D1
:104490004BE7B0F1806F04D100F08FF8010018BF36
:1044A00080463068010329D5B06FB0F5804FF868B9
:1044B00003D140F48040F86008E020F48040F860C8
:1044C000E16FB06F21F040610143E167B06FB0F17F
:1044D000006F03D1206840F4801005E0B0F5804FF4
:1044E00004D1206840F48030206007E0B0F1806F94
:1044F00004D100F062F8010018BF80463068410323
:1045000014D5E26FF06F22F040620243E267F06F71
:10451000B0F1006F02D100F046F807E0B0F1806F13
:1045200004D100F04AF8010018BF80463068410409
:1045300011D5E26FD6F8800022F040520243E267C4
:10454000D6F88010B1F1805F05D1022100F036F875
:10455000010018BF80463068C10306D5FA68D9F853
:10456000000022F004020243FA603168880206D596
:10457000F968D9F8040021F018010143F9603168A5
:10458000C8010DD5F968D9F8080021F4401101439C
:10459000F960D9F80810B1F5001F01D100F003F857
:1045A0004046BDE8F28F206840F4801020607047DC
:1045B000002106F1200000F079BA0121301D00F041
:1045C0001DBA0000F8B501460020B1F5003FDFF844
:1045D000F055DFF8C4364FF400464FF4FA4C13D1CF
:1045E000A96801F44071B1F5807F00F0B981B1F59F
:1045F000007F00F0AB81B1F5407F04D119688A03D8
:1046000001D5DFF89806F2BDDA68DFF89446DFF8E6
:10461000947602F00302012A04D01DD3032A15D098
:104620000FD319E01A68920716D51A6812074EBF01
:104630001A68EA68120902F0F002120954F82220FE
:104640000BE01A68520507D53A4606E01A6892034D
:1046500048BFDFF8542600D400220129DFF84CE6D9
:1046600000F0AE80022900F0B680042900F0BE8080
:10467000082900F0C780102900F0CE80202900F022
:10468000D880402900F01D81802900F02481B1F5F7
:10469000807F00F02B81B1F5007F00F03981B1F50A
:1046A000806F00F04281B1F5006F00F0FA80B1F543
:1046B000805F1DD0B1F5005F1ED0B1F5804F00F0D6
:1046C000C580B1F5803F00F0DC80B1F5802F13D0BC
:1046D000B1F5002F30D0B1F5801F00F01181B1F598
:1046E000001F00F0D580B1F1807F00F03E81F2BD67
:1046F00011464FF48050D7E0296811F040615AD03C
:10470000B1F1806F0FD0B1F1006F3CD0B1F1406FCB
:10471000EDD119688A07EAD5186801074EBF1868F5
:10472000E868000939E119680C01E0D51969CC0283
:104730001FD500F053F942E169694E041AD5196892
:104740008C0116D5D968CC0313D5D868C0F30620E0
:104750004243D868C0F30310401CB2FBF0F1D868A4
:10476000C00E04D1D86882034CBF11200720B1FBD2
:10477000F0F0F2BD296811F040611CD0B1F1806FFA
:1047800010D0B1F1006F00F00E81B1F1406FF0D1A7
:1047900019688A07EDD5186801074EBF1868E868E0
:1047A0000009FAE019680C0109D51969CC0206D58F
:1047B00000F014F903E129698A0700D57046F2BDBB
:1047C000296801F003010329F9D8DFE811F05D0041
:1047D000D900C400C900296811F00C0100F0B280B2
:1047E00004293CD0082958D00C2908E0296811F088
:1047F000300169D0102932D020294ED0302900F064
:10480000AF80F2BD296811F0C0015DD0402926D0EB
:10481000802942D0C029F2E7296811F4407153D0B1
:10482000B1F5807F1BD0B1F5007F36D0B1F5407F68
:10483000E5E7296811F4406146D0B1F5806F0ED0EC
:10484000B1F5006F29D0B1F5406FD8E7296801F0C4
:104850004051B1F1805F03D0B1F1405F20D18FE0D2
:1048600019680C011CD51969CC0119D51869196989
:1048700000F0AEF81969401CB2FBF0F0C1F34161E1
:10488000A1E0686940077BD4BDE8F14001F0A5B81C
:10489000696911F0180104D008295CD0102906D0EC
:1048A000F2BD11464FF40060BDE8F4408AE119689A
:1048B0008A07F5D5186801074EBF1868E86800092F
:1048C0006BE0296811F440513CD0B1F5805F57D0BE
:1048D000B1F5005F08E0296811F4404132D0B1F52C
:1048E000804F4DD0B1F5004F35D0F2BD296811F49D
:1048F000403127D0B1F5803F42D0B1F5003FF3E71A
:10490000696911F003011DD0022924D05FD237E07C
:10491000296811F4402115D0B1F5802F16D0B1F5DA
:10492000002F18D0B1F5402F69E7296811F4401124
:1049300008D0B1F5801F09D0B1F5001F0BD0B1F53B
:10494000401F5CE7BDE8F14001F03FB8E9688A0725
:104950003DD56046F2BD19684A0538D53846F2BDE6
:10496000A9688A0733D53046F2BD696911F4401150
:1049700006D0B1F5801F07D0B1F5001F13D0F2BDEE
:10498000BDE8F14000F0D8BF19688A071FD5186844
:1049900001074EBF1868E868000900F0F000000940
:1049A00054F82000F2BD19688C0110D5D968CC02EA
:1049B0000DD5D868D96800F00BF8401CD968B2FB57
:1049C000F0F0C1F34151491C4900B0FBF1F0F2BDD8
:1049D000C0F306204243C1F30310704718691969F8
:1049E000C0F306204243C1F30310401C196970470D
:1049F000901002400C100240007000402DE9F04180
:104A000000F0D4F806D0F96801F00301814228D102
:104A100060B926E0012804D023D303281BD016D385
:104A20001FE039688A071CD500F0BAF8386820F012
:104A3000806000F0B2F880463868010113D5FFF7B6
:104A4000EDFBA0EB08000328F6D303252DE0396821
:104A50004A05E9D405E039688A03E5D439684A0390
:104A6000E2D4012521E07168B268491E1CB93B6996
:104A700000F076F803E0012C3B6900F079F842EA97
:104A800001113961386840F0806000F086F8044612
:104A90003868010105D4FFF7C1FB001B0328F7D3D9
:104AA000D3E73869B1690843386156E02DE9F04130
:104AB00000F07CF806D0F96801F00301814228D1AA
:104AC00060B926E0012804D023D303281BD016D3D5
:104AD0001FE039688A071CD500F062F8386820F0BA
:104AE000805000F05AF880463868810013D5FFF7EF
:104AF00095FBA0EB08000328F6D303252DE03968C9
:104B00004A05E9D405E039688A03E5D439684A03DF
:104B1000E2D4012521E07168B268491E1CB97B69A5
:104B200000F01EF803E0012C7B6900F021F842EA56
:104B300001117961386840F0805000F02EF8044689
:104B40003868810005D4FFF769FB001B0328F7D301
:104B5000D3E77869B169084378612846BDE8F081F8
:104B60005348F468034043EA022242EAC4627047B1
:104B700009D134694F480340640843EA0222641EA5
:104B800042EA4452704774694B480340640843EA60
:104B90000222641E42EA446270473860FFF73EBB5F
:104BA000F968890840EA8100F860704706463A4F84
:104BB00030680C46F968002511F0030F70470000BB
:104BC0008810024010B50022B0F5006F324B3B4C0C
:104BD0001CD1206800F0E000602820D0402818BFD9
:104BE000B0F5007F1DD11868840153D5D868C4037F
:104BF00050D5D86800F066F8D868C0F30622D868A7
:104C0000C00E44D1D868830340D53DE0B0F5805F45
:104C100008D1206800F4E060B0F5407FDED1284A7A
:104C200038E080B91868040134D51869C40331D557
:104C3000186900F047F81869C0F306221869C00E19
:104C400025D118691EE0802818BFB0F5806F04D107
:104C5000186841051ED5134A1CE0202818BFB0F57E
:104C6000807F17D11868840014D55869C40311D502
:104C7000586900F027F85869C0F306225869C00E39
:104C800005D15869830301D5112000E00720514365
:104C9000B1FBF0F2104610BD0010024090D00300AE
:104CA000347700080024F40000127A00006CDC0263
:104CB0000F80FF070F809FFF0F80FFF99C100240BD
:104CC00068FF1F00C0F30310401CB1FBF0F17047F8
:104CD0000EB44368DFF89C251340019A0B430299F8
:104CE0001343039A0B43049913430B43436000207F
:104CF00003B070473AE00968C0F8801000207047A0
:104D000080B5016841F003010160022000F0C4FA9F
:104D1000002002BD006800F00300704710B50A686B
:104D2000DFF854358260C4684A681C408B681443BD
:104D3000CA6809691C4314430C43C460002010BDB9
:104D400014300858704730B50A6842624B68836275
:104D5000C46A4D698B68CA6809691D431543240AF2
:104D60000D4345EA0424C462002030BDD0F8800021
:104D7000704718B585B000F03CF8102100F030F80D
:104D800041F28832102138E118B585B000F031F8D1
:104D9000112100F025F841F2883211212DE118B5DA
:104DA00085B000F026F8122100F01AF841F288329E
:104DB000122122E118B585B000F01BF8182100F08F
:104DC0000FF841F28832182117E118B585B000F0CC
:104DD00010F8192100F004F841F2883219210CE191
:104DE00001914FF4805200210391049204466946D8
:104DF00094E74FF4807200910292704718B54FF417
:104E0000807285B000F093F800900C2103904FF46D
:104E10008052019104926946E06840F08000E060B1
:104E20002046E26822F04002E260FFF777FFDFF8F9
:104E30004C240C21204600F0F2F8E16821F08001BA
:104E4000E16006B010BD18B585B007210092019150
:104E50004FF4807200F0A0F841F288320721CCE0D4
:104E600018B585B00446002000900190029000F033
:104E70008CF8DFF80C241168C9084FF47A73B1FB81
:104E8000F3F141F2883041430846411E38B1606B6E
:104E90000206F9D5DFF8EC03A063002001E04FF033
:104EA000004006B010BD18B508214FF4807285B0DF
:104EB0000446019102924FF4D570002100900391B5
:104EC00000F064F8204600F0B1F906B010BD18B546
:104ED00085B0FFF78EFF3721FFF782FF41F288325E
:104EE00037218AE018B585B0FFF783FF292174E0E8
:104EF00018B579E018B54FF4807285B000F017F856
:104F0000332100F040F841F28832332175E018B5C2
:104F10004FF4407285B000F00AF802210090019130
:104F200003904FF4805204926946204612E00446F2
:104F300002920020704718B585B04FF4407200917E
:104F40000292092101914FF48052002103910492B1
:104F500004466946FFF7E2FE204600F0DEF806B0A0
:104F600010BD30B54FF4807285B004460D460292F4
:104F70000020032100F007F82A460321204600F014
:104F80000DF905B030BD0090019103904FF48052AF
:104F9000049269462046C1E60292002103914FF433
:104FA0008052049204466946B8E618B585B0FFF70A
:104FB00020FF0D21FFF714FF41F288320D211CE084
:104FC00018B54FF4807285B0FFF7B1FF0D21FFF7E0
:104FD000DAFF41F288320D210FE0FFF701FF204692
:104FE00000F0B8F806B010BD85B0FFF702FF06214B
:104FF000FFF7F6FE41F288320621204600F00FF856
:1050000006B010BD18B54FF4807285B0FFF78FFF62
:105010000B21FFF7B8FF41F288320B21EDE730B5E5
:10502000974C2568984C0346ED084FF47A70B5FB11
:10503000F0F042431046421E40B1586B2042F9D076
:105040008004F7D45A6B500701D5EBE0DBE0586BD6
:10505000C20700D5E3E08B4898631869C0B2884264
:1050600001D0012030BD58698849084201D1002093
:1050700030BD02D54FF0007030BD410001D5402059
:1050800030BD810001D5802030BDC10002D54FF474
:10509000807030BD010102D54FF4007030BD410178
:1050A00002D54FF4806030BDC10102D54FF40060DD
:1050B00030BD010200D5A9E0410200D5A9E081027E
:1050C00002D54FF4804030BDC10202D54FF40040FC
:1050D00030BD410302D54FF4003030BD810302D50D
:1050E0004FF4802030BDC10302D54FF4002030BD05
:1050F000010402D54FF4801030BD410402D54FF4B5
:10510000001030BD810402D54FF4800030BD00078F
:1051100002D54FF4000030BD7EE059490A68D2083C
:105120004FF47A73B2FBF3F241F288314A431146ED
:105130004A1E49B1416B11F0450FF8D08904F6D4ED
:10514000426B510701D521E01DE0416BCA0700D534
:105150009EE01FE04A490A68D2084FF47A73B2FB16
:10516000F3F241F288314A4311464A1E49B1416B7C
:1051700011F0450FF8D08904F6D4426B510701D5E0
:1051800004E000E006E04FF0004070470422826334
:10519000042070473B4981630020704730B50346C7
:1051A00037480468E4084FF47A75B4FBF5F441F22B
:1051B000883044432046441E48B1586B10F0450FD8
:1051C000F8D08004F6D45C6B600701D52AE01AE0C1
:1051D000586BC40700D522E01869C0B2884201D0DC
:1051E000012030BD27489863586910F4604F03D1FF
:1051F000000C1080002030BD410400D509E00004FF
:1052000000D503E008E04FF0004030BD4FF480507F
:1052100030BD4FF4005030BD4FF4803030BD012020
:10522000986330BD04219963042030BD14490A6895
:10523000D2084FF47A73B2FBF3F241F288314A4359
:1052400011464A1E49B1416B11F0450FF8D089044F
:10525000F6D4426B510701D598E794E7416BCA0732
:1052600000D515E0416B4A0644BF40218163002010
:1052700070470000002CC0FFC0E0FEFF00E1F50514
:105280000C000020C50020004500200008E0FFFDC4
:10529000012181630120704738B50446FEF7BEFF47
:1052A00014F1010F054602D0044801786418FEF796
:1052B000B5FF401BA042FAD331BD00BF0000002063
:1052C00010B5044610460A460146204600F0ECFBA5
:1052D000204610BD2DE9FC47050064D0DFF8847737
:1052E000DFF89067BC68F86800F003082878C1060A
:1052F00004F00C0447D524B10C2C08BFB8F1010F01
:105300002BD13868810702D5A86900284BD03968AD
:1053100008074EBF396871680909286A01F0F00171
:10532000814206D200F065FB00283CD100F015FA5E
:1053300007E000F012FA24B9286A00F05AFB0028AE
:1053400031D100F0F9FA00F0ECFADFF8200700683C
:1053500000F0DEFB010016D0F9E1A86928B3396836
:1053600041F001013960FEF759FF81463868810735
:1053700007D4FEF753FFA0EB09000328F6D3032060
:10538000E5E100F0EAF92878C10756D5082C04D0E9
:105390000C2C08BFB8F1030F18D1386881034CD525
:1053A0006868002849D10120D1E1386840084000F0
:1053B0003860FEF733FF814638688107E3D5FEF792
:1053C0002DFFA0EB09000328F6D3D8E76868B0F5F5
:1053D000803F04D1386840F48030386011E0B0F587
:1053E000A02F386806D140F480203860396841F435
:1053F000803105E020F480303860396821F4802164
:105400003960686860B1FEF709FF8146386881033A
:1054100013D4FEF703FFA0EB09006528F6D3AEE72F
:10542000FEF7FCFE81463868810306D5FEF7F6FEDE
:10543000A0EB09006528F6D3A1E72878810713D5EA
:10544000042C04D00C2C08BFB8F1020F22D138680C
:10545000410502D5E8680028A5D07868296920F0C0
:10546000FE4040EA016078602878010743D568690A
:105470000028706830D040F001007060FEF7CEFE6A
:1054800080467068810736D4FEF7C8FE00F061F9E7
:10549000F7D374E7E86878B1396841F4807139600E
:1054A000FEF7BCFE804638684105D6D4FEF7B6FE4E
:1054B00000F04FF9F7D362E7386820F48070386065
:1054C000FEF7ACFE804638684105CDD5FEF7A6FE56
:1054D00000F03FF9F7D352E7400840007060FEF754
:1054E0009DFE80467068810705D5FEF797FE00F0A7
:1054F00030F9F7D343E72878410767D5B86DC10085
:105500004FF000080AD4B86D40F08050B8654FF0F5
:105510000108B86D00F0805000900098DFF85895B1
:10552000D9F80000C10513D4D9F8000040F4807008
:10553000C9F80000FEF772FE8246D9F80000C105E6
:1055400006D4FEF76BFEA0EB0A000328F5D316E79E
:10555000A868012804D1306840F00100306010E0F4
:105560000528306806D140F004003060316841F011
:10557000010105E0400840003060316821F004017D
:105580003160A86841F2893960B1FEF747FE824672
:105590003068810713D4FEF741FEA0EB0A004845AE
:1055A000F6D3ECE6FEF73AFE82463068810706D570
:1055B000FEF734FEA0EB0A004845F6D3DFE6B8F16B
:1055C000000F03D0B86D20F08050B86528788106B0
:1055D00021D5686A0028B0680ED040F00100B060A4
:1055E000FEF71CFE8046B068810714D4FEF716FE55
:1055F00000F0AFF8F7D3C2E640084000B060FEF715
:105600000DFE8046B068810705D5FEF707FE00F065
:10561000A0F8F7D3B3E6A86A002800F09780022824
:1056200074D1F868EA6A00F00301914201BF00F00A
:10563000F0012A6B521EB1EB021F1BD16A6B00F402
:10564000FE41B1EB022F02BF00F07841AA6BB1EB33
:10565000C26F0FD1EA6B520800F4C001521EB1EBC9
:10566000425F07D1296C490800F0C060491EB0EBC9
:10567000416F47D00C2C4AD03868410101D43868BA
:10568000C1003FF590AE386820F080703860FEF7BA
:10569000C5FD04463868810105D5FEF7BFFD001B36
:1056A0000328F7D36BE6F868DFF8D013EA6A0840FE
:1056B000296B1043491E40EA0110EA6B696B5208DE
:1056C00040EA0120296C521E490840EA4250491E16
:1056D00040EA4160A96B40EAC160F860386840F078
:1056E00080703860F96841F08071F960FEF796FDCE
:1056F00004463868810129D4FEF790FD001B032879
:10570000F7D33CE63868810120D4E7E70C2C3FF45E
:105710004AAE386820F080703860396811F0205F38
:1057200003D1F86880088000F860F968DFF850035A
:105730000140F960FEF772FD04463868810105D525
:10574000FEF76CFD001B0328F7D318E60020BDE828
:10575000F687A0EB080003287047386840F008007F
:1057600038603968286A21F0F001014339607968AE
:10577000E86921F47F4141EA0021796070472DE911
:10578000F84304460026002C60D0DFF8F852286861
:10579000884600F00F00404502D200F0B8F855D11D
:1057A0002168DFF8C072C80778D56068DFF8D89242
:1057B000032841D13868820148D5F868002200F0FA
:1057C000030001280FD13868020705D4DFF8A002D2
:1057D0000268C2F3032002E03868C0F30310DFF868
:1057E000AC2252F82020F86800F00300022804D010
:1057F000032804D1DFF8982201E0DFF89822FB6843
:10580000F868D7F80CC0C0F306204243C3F3031076
:10581000401CB2FBF0F0CCF34162521C5200B0FBD2
:10582000F2F0484520D3BA6812F0F00F15D089077E
:105830001AD5A068C0B910E0022802D138688103E7
:1058400003E00028386802D1810702D43EE0410518
:105850003CD500F071F8484506D3B86820F0F00058
:1058600040F08000B8608026B9686068890840EA26
:105870008101B960FEF7D2FC8146B868616800F02A
:105880000C00B0EB810F09D0FEF7C8FCA0EB0900BB
:1058900041F289318842F0D3032036E02078810735
:1058A00006D5BA68A06822F0F0020243BA6005E0AB
:1058B000802E03D1B86820F0F000B860286800F0AE
:1058C0000F00804504D200F022F801D001201CE036
:1058D0002078410705D5BA68E06822F4E062024307
:1058E000BA602178080706D5B968206921F46051AB
:1058F00041EAC001B96000F01FF800F012F8BDE8FD
:10590000F2435A48006800F003B9BDE8F283296801
:10591000090948EA01112960286800F00F00404594
:105920007047BA685C49C2F30312895C4E4A01F0C1
:105930001F01C8401060704770B54A4A544B9068C8
:10594000D6680025002110F00C0006F00306514C2B
:1059500003D00C2812D1012E1AD115682E0704D4B9
:10596000434D2E68C6F3032502E01568C5F3031501
:10597000464E56F8255048B9294624E0042808BF69
:10598000214620D008281ED119461CE00C281AD127
:10599000D06800F00300022803D0032808BF1D468A
:1059A00000E02546D168D068D268C0F306204543A0
:1059B000C1F30310C2F34161401C491CB5FBF0F078
:1059C0004900B0FBF1F1084670BD2748334A006832
:1059D00013683349C3F3022206E023482F4A0068C4
:1059E00013682F49C3F3C222895C01F01F01C8402C
:1059F00070477CB52B4E054630680024C10002D5A7
:105A000000F0A8F80EE0306840F080503060316857
:105A100001F080510091009800F09CF8316821F06D
:105A200080513160B0F5007F04D1802D09D9A12DBE
:105A300006D301E0802D01D3022402E0702D00D1B5
:105A4000012410480168090944EA01110160006855
:105A500000F00F00A04201D0012076BD002076BDED
:105A600000000000001002400C0000200800002090
:105A70009410024090100240007000400C809D0184
:105A8000FFFFEEFE0020024001B4C404347700089A
:105A900000127A000024F400A476000808100240E6
:105AA000C07800085810024062F30F2262F31F42D0
:105AB000401810F0030308D0C91A1FD3DB0748BFF2
:105AC00000F8012D28BF20F8022D130030B4144631
:105AD0001546103928BF20E93C00FAD8490728BFED
